{
    "txid": "93000f4920162763b7235495024f36ee1489e6ca0157694f2c8d4da6f6c42735",
    "hash": "93000f4920162763b7235495024f36ee1489e6ca0157694f2c8d4da6f6c42735",
    "version": 1,
    "size": 219,
    "vsize": 219,
    "weight": 876,
    "locktime": 0,
    "vin": [
        {
            "txid": "4d49a71ec9da436f71ec4ee231d04f292a29cd316f598bb7068feccabdc59485",
            "scriptSig": {
                "asm": "304402205e2afac7eab7ee609a360a6c7ad2eabe885e31ddac30d8f5810d8be6e47b9b910220590d6478ac747d60f596c5a7fbd36d55e9bace23f0626000674fab3da15d59c3[ALL] 0479be667ef9dcbbac55a06295ce870b07029bfcdb2dce28d959f2815b16f81798483ada7726a3c4655da4fbfc0e1108a8fd17b448a68554199c47d08ffb10d4b8",
                "hex": "47304402205e2afac7eab7ee609a360a6c7ad2eabe885e31ddac30d8f5810d8be6e47b9b910220590d6478ac747d60f596c5a7fbd36d55e9bace23f0626000674fab3da15d59c301410479be667ef9dcbbac55a06295ce870b07029bfcdb2dce28d959f2815b16f81798483ada7726a3c4655da4fbfc0e1108a8fd17b448a68554199c47d08ffb10d4b8"
            },
            "sequence": 0
        }
    ],
    "vout": [
        {
            "value": 0.00100000,
            "n": 0,
            "scriptPubKey": {
                "asm": "OP_DUP OP_HASH160 5834479edbbe0539b31ffd3a8f8ebadc2165ed01 OP_EQUALVERIFY OP_CHECKSIG",
                "desc": "addr(193P6LtvS4nCnkDvM9uXn1gsSRqh4aDAz7)#nw04wh58",
                "hex": "76a9145834479edbbe0539b31ffd3a8f8ebadc2165ed0188ac",
                "address": "193P6LtvS4nCnkDvM9uXn1gsSRqh4aDAz7",
                "type": "pubkeyhash"
            }
        }
    ],
    "hex": "01000000018594c5bdcaec8f06b78b596f31cd292a294fd031e24eec716f43dac91ea7494d8a47304402205e2afac7eab7ee609a360a6c7ad2eabe885e31ddac30d8f5810d8be6e47b9b910220590d6478ac747d60f596c5a7fbd36d55e9bace23f0626000674fab3da15d59c301410479be667ef9dcbbac55a06295ce870b07029bfcdb2dce28d959f2815b16f81798483ada7726a3c4655da4fbfc0e1108a8fd17b448a68554199c47d08ffb10d4b80000000001a0860100000000001976a9145834479edbbe0539b31ffd3a8f8ebadc2165ed0188ac00000000"
}
