{
    "txid": "dcfc3f168de003ecf78ba3473083e8734de08b41763b2b2f67e4f799441d68f9",
    "hash": "dcfc3f168de003ecf78ba3473083e8734de08b41763b2b2f67e4f799441d68f9",
    "version": 2,
    "size": 172,
    "vsize": 172,
    "weight": 688,
    "locktime": 0,
    "vin": [
        {
            "txid": "5897de6bd6027a475eadd57019d4e6872c396d0716c4875a5f1a6fcfdf385c1f",
            "scriptSig": {
                "asm": "",
                "hex": ""
            },
            "sequence": 0
        }
    ],
    "vout": [
        {
            "value": 0.18000000,
            "n": 0,
            "scriptPubKey": {
                "asm": "OP_DUP OP_HASH160 1fc11f39be1729bf973a7ab6a615ca4729d64574 OP_EQUALVERIFY OP_CHECKSIG",
                "desc": "addr(13tuJJDR2RgArmgfv6JScSdreahzgc4T6o)#ztmwxg4c",
                "hex": "76a9141fc11f39be1729bf973a7ab6a615ca4729d6457488ac",
                "address": "13tuJJDR2RgArmgfv6JScSdreahzgc4T6o",
                "type": "pubkeyhash"
            }
        },
        {
            "value": 0.00000000,
            "n": 1,
            "scriptPubKey": {
                "asm": "OP_RETURN 54686973204f505f52455455524e207472616e73616374696f6e206f7574707574207761732063726561746564206279206d6f646966696564206372656174657261777472616e73616374696f6e2e",
                "desc": "raw(6a4c4f54686973204f505f52455455524e207472616e73616374696f6e206f7574707574207761732063726561746564206279206d6f646966696564206372656174657261777472616e73616374696f6e2e)#zf2avljj",
                "hex": "6a4c4f54686973204f505f52455455524e207472616e73616374696f6e206f7574707574207761732063726561746564206279206d6f646966696564206372656174657261777472616e73616374696f6e2e",
                "type": "nulldata"
            }
        }
    ],
    "hex": "02000000011f5c38dfcf6f1a5f5a87c416076d392c87e6d41970d5ad5e477a02d66bde975800000000000280a81201000000001976a9141fc11f39be1729bf973a7ab6a615ca4729d6457488ac0000000000000000526a4c4f54686973204f505f52455455524e207472616e73616374696f6e206f7574707574207761732063726561746564206279206d6f646966696564206372656174657261777472616e73616374696f6e2e00000000"
}
